:03000000020317E1
:0C031700787FE4F6D8FD75813902035EA2
:040653007F057E00A1
:10065700EF1FAA0670011E4A600BE4FDEDC3940C60
:0506670050EE0D80F7CC
:01066C00226B
:1005CB00C207D2947F0C7E00120657C2947F507ED6
:1005DB0000120657D2947F0A7E00120657A29492FD
:0605EB0007120653A207EF
:0105F10022E7
:02061800A90730
:10061A00E4FBC294E9139294120653D294E9C313E9
:0C062A00F90BBB08ED7F057E00020657AF
:10066D00E4FBC294ECC313FCD29430940343048096
:09067D001206530BBB08EBAF049D
:010686002251
:100596001205CB7FCC1206187F441206187FC87E40
:1005A600001206571205CB7FCC1206187FBE120624
:1005B6001812066DA90712066DEFC454F0FFE9C4C0
:0405C600540F4FFF80
:0105CA00220E
:0C06EF00C0F9A4B0999282F88090FFBF7F
:10055F00042400000000C181082D0A0A0A0A0A0AB1
:10056F000A01C102012900C18604350A0A0A0A01DB
:10057F003900C104C100C185012C1E012B140123B8
:06058F0000C10301210080
:1004CA00200724EF24FE601104704475A01F758074
:1004DA00FF75A0807580FE803075A01F7580FF753E
:1004EA00A0807580FD8022EF24FE601104702075C3
:1004FA00A01F7580FF75A0807580FF800C75A01FF6
:10050A007580FF75A0807580FF75A01FE4F58022B5
:10051A0075A0C0E4F58075A01F7580FF75A0E07412
:10052A002D2521F8E69006EF93F58075A01FE4F5D6
:10053A008075A0C0AF2104A807088002C333D8FC85
:10054A00F58075A01FE4F5800521E521C3940840D4
:04055A0003E4F521A0
:01055E00227A
:1006CF0020070775A0A07580102275A0A0E4F58003
:0106DF0022F8
:1003A3007F01E4FE75B00FC2C2C2C4E5B0540FFDB5
:1003B300640F6055ED24F9601724FC600F24FE6080
:1003C3000714700E7F01800A7F0280067F0380027C
:1003D3007F0475B0F0D2C2D2C420C4047E0180135E
:1003E30020C2047E02800C20B5047E03800520B465
:1003F300027E0430C4FD30C2FA30B5F730B4F4EFF6
:0C0403001425E025E02EF52922E4F5295F
:01040F0022CA
:1005F200E52A7016752A0175350A75360A75370AA5
:1006020075380AF539C200C20222300008200305FB
:06061200E4F52AC20222F9
:10068700E52AB4011375350A75360A75370A7538C0
:090697000AC200C203E4F5392295
:10014500E529700302023714B40F00400302022BA5
:1001550090016375F003A4C58325F0C5837302017F
:10016500900201A20201B302022B0201C10201CFDA
:100175000201DD02022B0201EB0201F90202070274
:10018500022B02021502022302022830000302029A
:100195002B74352539F8E4F6053902022B300003B6
:1001A50002022B74352539F876010539807820004F
:1001B5007574352539F876020539806A200067742B
:1001C500352539F876030539805C200059743525C5
:1001D50039F876040539804E20004B74352539F8F9
:1001E50076050539804020003D74352539F87606B9
:1001F5000539803220002F74352539F87607053901
:10020500802420002174352539F8760805398016B3
:1002150020001374352539F876090539800812054B
:10022500F28003120687E4F529E539C394044002F8
:03023500D20022D2
:10041000E523C3952B5007E4F522F5288014E52346
:10042000C3952B4011E523D3952C500A75220175F5
:100430002801D2078008752202752802C207120619
:10044000CF85222EE52375F00A84F533E52375F078
:100450000A8485F034200211752D0B752F0B753031
:100460000A75310A75320AD202300104C2078002CD
:08047000D2077F011204CA2229
:10047800D2077F011204CA20020E752D0B75320BAC
:1004880075300A75310AD20285352E85362F8537A3
:100498003385383430002AE53575F00AA42536F559
:1004A8002CE53775F00AA42538F52BE52CC3952BD8
:1004B8005006D203C2078004C203D2077F02120487
:0204C800CA2246
:0F06E000E52A1460060470060204101204782242
:10000E00438E805389F0758A9A758CA9C28DD28CD5
:05001E00D2A9D2AF22BF
:1006B800759850438E40538EFE53890F758BE075A5
:0706C8008DFEC2ABD28E22B1
:1006A00075A0A0E4F58075A0807580FF1206B812D1
:0806B000000E120596020596EA
:100636001206A01206E0300608C2061203A3120133
:0D064600453005EFC2051205968F2380E6B2
:03000B00020026CA
:10002600C0E0C0F0C083C082C0D075D000C000C0A0
:1000360001C002C003C004C005C006C007E52724EE
:1000460001F527E43526F526E43525F525E435249E
:10005600F52412051AE47B0AFAF9F8AF27AE26ADA5
:1000660025AC24120274AC00AD01AE02AF03E4FB72
:10007600FAF9F8C31203067002D206E47BFAFAF91B
:10008600F8AF27AE26AD25AC24120274AC00AD0144
:10009600AE02AF03E4FBFAF9F8C31203067002D20C
:1000A60005E47B64FAF9F8AF27AE26AD25AC241239
:1000B6000274AC00AD01AE02AF03E4FBFAF9F8C37B
:1000C600120306705FE52814600B1460302402707A
:1000D60053B201804FE47BC8FAF9F8AF27AE26ADDC
:1000E60025AC24120274AC00AD01AE02AF03E4FBF2
:1000F600FAF9F8C3120306702BB2018027E47B904D
:100106007A01F9F8AF27AE26AD25AC24120274ACFD
:1001160000AD01AE02AF03E4FBFAF9F8C312030621
:100126007002B201D007D006D005D004D003D002A9
:0F013600D001D000D0D0D082D083D0F0D0E03232
:03002300020003D5
:03000300C299326D
:10032300020636E493A3F8E493A34003F68001F2B4
:1003330008DFF48029E493A3F85407240CC8C333DB
:10034300C4540F4420C8834004F456800146F6DFAA
:10035300E4800B010204081020408090055FE47ED6
:10036300019360BCA3FF543F30E509541FFEE4939F
:10037300A360010ECF54C025E060A840B8E493A366
:10038300FAE493A3F8E493A3C8C582C8CAC583CA91
:10039300F0A3C8C582C8CAC583CADFE9DEE780BE49
:010595000065
:1002380075F008758200EF2FFFEE33FECD33CDCC7D
:1002480033CCC58233C5829BED9AEC99E582984000
:100258000CF582EE9BFEED9AFDEC99FC0FD5F0D6DD
:10026800E4CEFBE4CDFAE4CCF9A88222B800C1B907
:100278000059BA002DEC8BF084CFCECDFCE5F0CB45
:10028800F97818EF2FFFEE33FEED33FDEC33FCEB7E
:1002980033FB10D703994004EB99FB0FD8E5E4F939
:1002A800FA227818EF2FFFEE33FEED33FDEC33FC26
:1002B800C933C910D7059BE99A4007EC9BFCE99A1A
:1002C800F90FD8E0E4C9FAE4CCFB2275F010EF2F5F
:1002D800FFEE33FEED33FDCC33CCC833C810D7075F
:1002E8009BEC9AE899400AED9BFDEC9AFCE899F89A
:0E02F8000FD5F0DAE4CDFBE4CCFAE4C8F9222D
:10030600EB9FF5F0EA9E42F0E99D42F0E89C45F04D
:0103160022C4
:00000001FF
