:030000000205AB4B
:0C05AB00787FE4F6D8FD7581210205F28E
:1008CD00C297E4FEC2A3EF30E004D2A38002C2A31C
:0C08DD00D297C297EFC313FF0EBE08E8CD
:0108E90022EC
:1008EA00E4FFFEEFC313FF30A305430780800353E1
:0C08FA00077FD297C2970EBE08E9C2A388
:0109060022CE
:10093E00AE07C293C297D2935306FEAF061208CDEE
:08094E00AF051208CDC293228F
:1007E600E4FEC293C297D2934307011208CD1208C2
:1007F600EAAE07C293EEC4540F75F00AA4FFEE5496
:030806000F2FFFB2
:0108090022CC
:10085000E4FD7F8E12093E7F8012093E7D307F824B
:1008600012093E7D087F8412093E7D807F8E020939
:010870003E49
:070A4700D2A1120A4ED2A059
:050A4E00007F0CDFFE3B
:010A53002280
:080A6B007F6C7E91DEFEDFFCD2
:010A73002260
:0D0A5400120A47C2A1120A4EC2A0020A4EA9
:0A0A6100C2A1120A49D2A1020A4EF6
:10096D00EF6004C2A18002D2A1120A49C2A0120AEC
:06097D004ED2A1020A4E59
:0309830012080A4D
:10098600120A4730A107C2A0120A61C322C2A0D32D
:01099600223E
:02080A00AE0737
:10080C00E4FDEE30E704D2A18002C2A1120A4ED25E
:10081C00A0EE25E0FE120A4EC2A0120A4E0DBD0833
:01082C00E1EA
:01082D0022A8
:1008AF00E4FEFDEE25E0FED2A0120A4E30A1034376
:0D08BF000601C2A0120A4E0DBD08E8AF06EA
:0108CC002209
:1009E700120A547F901209837F03120983120A6146
:0309F700020A6B86
:10082E007DAA7C00120A547F9112080A12098612C0
:10083E0008AFAD07E4FF12096D120A61120A6BAF21
:01084E0005A4
:01084F002286
:1007C100AC05AB07120A547FA012080A120986AFC2
:1007D1000312080A120986AF0412080A12098612C6
:0507E1000A61020A6B31
:1009D3000020406080A0C0E0C0F9A4B0999282F8E2
:0409E3008090FFBF42
:10071300040900000000C108010D32C102C1090132
:100723000F00C103C18601100008120A0A0A0A0A4F
:100733000A0A0AC100C105C184C101C107C10A0176
:020743000800AC
:100997009009D8E493300B06F5A043804022F5A0D8
:0409A7005380BF2298
:1009AB009009D8E493300B06F5A043801022F5A0F4
:0409BB005380EF2254
:1008710075A01F7580FF9009D7E493F5A0200C05A2
:0F0881007580FE80037580FF75A01FE4F580224F
:1008900075A01F7580FF9009D7E493F5A0200C0583
:0F08A0007580FD80037580FF75A01FE4F5802231
:100637009009D9E493FFF5A0E4F58075A01F7580B4
:10064700FFA393F5A08510827583001202E390093A
:10065700DB93F58075A01FE4F5808FA0AF1004A889
:1006670007088002C333D8FCF58075A01FE4F58026
:0D0677000510E510C394084003E4F51022BF
:10074600C2C420B30875080120B32180FB20B2087B
:1007560075080220B21680FB20B10875080320B187
:0D0766000B80FB20B00675080430B0FD22AA
:1009FA00E51A7008300908150DC20022E4F50F2225
:100A0A00E51A7008300908050DC20022750F012287
:10092400E51A7013B209C200300903C20222D202CE
:0A093400AD0D7F030207C1B20622D9
:0F0A1A00051AE51AD394014003E4F51AC200222D
:10079B00E50824FE600F146011146013240370121B
:1007AB001209FA800D120A0A80081209248003121A
:0607BB000A1AE4F5082211
:0E04EF0030030575140B800375140A200043BA
:1004FD007F831207E68F1CE51C75F00A84F515E560
:10050D001C75F00A8485F0167F851207E68F1CE5B1
:10051D001C75F00A84F512E51C75F00A8485F0133C
:10052D00E51B75F00A84F518E51B75F00A8485F056
:03053D0019D200D0
:0305400030044F35
:10054300C2047F811207E68F1CE51C64596008E52D
:100553001C6004640170387F831207E68F1CE51C5E
:1005630075F00A84F515E51C75F00A8485F016D23A
:1005730000E51C701A7F851207E68F1CE51C75F0D9
:0F0583000A84F512E51C75F00A8485F013D20086
:10059200300215E51B75F00A84F518E51B75F00AA3
:0905A2008485F019C202D2002286
:1006CC00E4F511C20B1209972009131204EFE51B74
:1006DC00C3950D5004D20B8002C20B0209AB200053
:1006EC002575120B75130B75140A75150A75160AF8
:1006FC0075170AE50D75F00A84F518E50D75F00A05
:07070C008485F019D20022E0
:100773007511011204EFE50FB40104D20B8002C21C
:100783000B1209AB300610E51BC3950D5004D20BB9
:080793008002C20B120997223B
:0F0A2900E51A1460060470060206CC1207732249
:10090700E51114600D047014D20C120890C20C0289
:0D0917000871D20C120871C20C1208902257
:10000E00438E805389F0758A9A758CA9C28DD28CD5
:05001E00D2A9D2AF22BF
:10095600759850438E40538EFE53890F758BE07504
:070966008DFEC2ABD28E2210
:1009BF009009D8E493F5A0E4F5809009D793F5A0BA
:0409CF007580FF220E
:0F0A38001209BF12095612000E1209E7020850E8
:10068400120A387D447F021207C1E4F58075A0FF89
:10069400120A29300508C20512074612079B3001C9
:1006A400EFC20112082EAC07E412022EE4FBFA7921
:1006B400C6783E12011EE4FBFAF9783F12002D12AF
:0806C40002628F1BD20280C804
:03000B000203FDF0
:1003FD00C0E0C0F0C083C082C0D075D000C000C0C6
:10040D0001C002C003C004C005C006C007E50C242E
:10041D0001F50CE4350BF50BE4350AF50AE4350965
:10042D00F5097B007A007912120637120907E47B71
:10043D0005FAF9F8AF0CAE0BAD0AAC0912034CACD2
:10044D0000AD01AE02AF03E4FBFAF9F8C31203EC01
:10045D007002D205E47B32FAF9F8AF0CAE0BAD0A9F
:10046D00AC0912034CAC00AD01AE02AF03E4FBFAD4
:10047D00F9F8C31203EC7002D201E47BFAFAF9F831
:10048D00AF0CAE0BAD0AAC0912034CAC00AD01AE16
:10049D0002AF03E4FBFAF9F8C31203EC7002D204C5
:1004AD00E47BF47A01F9F8AF0CAE0BAD0AAC09128E
:1004BD00034CAC00AD01AE02AF03E4FBFAF9F8C397
:1004CD001203EC7002B203D007D006D005D004D0D1
:1004DD0003D002D001D000D0D0D082D083D0F0D0C4
:0204ED00E032FB
:03002300020003D5
:03000300C299326D
:100026000202CEE86480F8E933E83360110460F038
:10003600ED33EC337009E8FCE9FDEAFEEBFF220440
:1000460060DED3EB9FEA9EE99DE8C2E78CF0C2F73B
:1000560095F0400CE8CCF8E9CDF9EACEFAEBCFFB07
:1000660012029985D0F05804700320D5B3E80470C5
:10007600075002B2D50202D892D5EC0460F7E4CC60
:10008600C0E0C398F8603B94186008400DD0E0FBD0
:100096000202B0E4FBFAC9FC8028E830E406E4C9B1
:1000A600FBE4CAFCE830E305E4C9CACBFCE8540724
:1000B6006010F8C3E913F9EA13FAEB13FBEC13FC2F
:1000C600D8F130F52FC3E49CFCEF9BFFEE9AFEEDD2
:1000D60099FDD0E0FBEF4E4D4C701222DB0302027D
:1000E600D5EC2CFCEF33FFEE33FEED33FDED30E7C0
:1000F600EB0202B0EF2BFFEE3AFEED39FDD0E0FB4E
:1001060050130BBB00030202D8ED13FDEE13FEEFF6
:0801160013FFEC13FC0202B020
:10011E00EC4D6011E8497017ED33EC3304600DE4DB
:10012E00FCFFFEFD22E933E8330470F80202CE1222
:10013E00029958046009E4CC248150062850090223
:10014E0002D82840030202D5C0E0EB4A7044B980C1
:10015E0006D0E0FB0202C4EF4E701CBD8008EBFF20
:10016E00EAFEE9FD80EBE98DF0A4FEE5F002020760
:10017E00E9CDF9EAFEEBFFEF89F0A4FCE5F0CE89BC
:10018E00F0A42EFFE435F0CD89F0A42DFEE435F079
:10019E008067EF4E7005BD80D780C3EF8BF0A4ACA7
:1001AE00F0EE8BF0A42CFCE435F0F8EF8AF0A42CE2
:1001BE00E5F038FCE433CB8DF0A42CFCE5F03BF8F5
:1001CE00EE8AF0A42CFCE5F038F8E433CF89F0A4E5
:1001DE002CFCE5F038CF3400CE89F0A42FFFE5F0EB
:1001EE003EFEE433C98DF0A42EFEE5F039CD8AF043
:1001FE00A42FFFE5F03EFEE43DFD33D0E0FB5007BB
:10020E000BBB000F0202D8EC2CFCEF33FFEE33FEDB
:06021E00ED33FD0202B009
:1002240075F020800E75F010800575F0087D007E55
:10023400007F003392D530D5031203DEEC33401037
:10024400EF33FFEE33FEED33FDEC33FCD5F0ED225E
:0E025400E5F0247EA2D513CC92E7CDCEFF229A
:10026200EDD2E7CD33EC3392D524814006E4FFFE94
:10027200FDFC22FCE4CFCECDCC24E0501174FF80F3
:10028200EDC3CC13CCCD13CDCE13CECF13CF047090
:07029200F030D5DE0203DEAF
:10029900E9D2E7C933E833F892D5EDD2E7CD33ECAB
:0702A90033FC5002B2D52224
:1002B000EC30E7100FBF000C0EBE00080DBD0004AF
:1002C0000BEB6014A2D5EB13FCED92E7FD2274FF5B
:1002D000FCFDFEFF22E480F8A2D574FF13FC7D80B4
:0302E000E480EFC8
:1005B700020684E493A3F8E493A34003F68001F2D0
:1005C70008DFF48029E493A3F85407240CC8C33345
:1005D700C4540F4420C8834004F456800146F6DF14
:1005E700E4800B0102040810204080900713E47E8A
:1005F700019360BCA3FF543F30E509541FFEE49309
:10060700A360010ECF54C025E060A840B8E493A3CF
:10061700FAE493A3F8E493A3C8C582C8CAC583CAFA
:10062700F0A3C8C582C8CAC583CADFE9DEE780BEB2
:0107450000B3
:1002E300BB010CE58229F582E5833AF583E02250D0
:1002F30006E92582F8E622BBFE06E92582F8E2221A
:0D030300E58229F582E5833AF583E4932233
:1003100075F008758200EF2FFFEE33FECD33CDCCA4
:1003200033CCC58233C5829BED9AEC99E582984027
:100330000CF582EE9BFEED9AFDEC99FC0FD5F0D604
:10034000E4CEFBE4CDFAE4CCF9A88222B800C1B92E
:100350000059BA002DEC8BF084CFCECDFCE5F0CB6C
:10036000F97818EF2FFFEE33FEED33FDEC33FCEBA5
:1003700033FB10D703994004EB99FB0FD8E5E4F960
:10038000FA227818EF2FFFEE33FEED33FDEC33FC4D
:10039000C933C910D7059BE99A4007EC9BFCE99A41
:1003A000F90FD8E0E4C9FAE4CCFB2275F010EF2F86
:1003B000FFEE33FEED33FDCC33CCC833C810D70786
:1003C0009BEC9AE899400AED9BFDEC9AFCE899F8C1
:0E03D0000FD5F0DAE4CDFBE4CCFAE4C8F92254
:0E03DE00C3E49FFFE49EFEE49DFDE49CFC2230
:1003EC00EB9FF5F0EA9E42F0E99D42F0E89C45F067
:0103FC0022DE
:00000001FF
