:030000000202E811
:0C02E800787FE4F6D8FD75814902032FF1
:040685007F057E006F
:10068900EF1FAA0670011E4A600BE4FDEDC3940C2E
:0506990050EE0D80F79A
:01069E002239
:0205D800A90771
:1005DA00E4FBC294E9139294120685D294E9C313F8
:0C05EA00F90BBB08ED7F057E00020689BE
:10069F00E4FBC294ECC313FCD29430940343048064
:0906AF001206850BBB08EBAF0439
:0106B800221F
:10056A00C208D2947F0C7E00120689C2947F507E04
:10057A0000120689D2947F0A7E00120689A29492FA
:06058A0008120685A2081C
:010590002248
:1005080012056A7FCC1205D87F441205D87F147E65
:100518000012068912056A7FCC1205D87FBE120523
:10052800D812069FA90712069FEFC454F0FFE9C42A
:04053800540F420713
:01053C00229C
:1005F600C297E4FEC2A3EF30E004D2A38002C2A3F6
:0C060600D297C297EFC313FF0EBE08E8A6
:0106120022C5
:10061300E4FFFEEFC313FF30A305430780800353BA
:0C062300077FD297C2970EBE08E9C2A361
:01062F0022A8
:1006B900AE07C293C297D2935306FEAF061205F650
:0806C900AF051205F6C29322F1
:10059100E4FEC293C297D2934307011205F61206F5
:1005A10013AE07C293EEC4540F75F00AA4FFEE54C4
:0305B1000F2FFF0A
:0105B4002224
:1005B500E4FD7F8E1206B97D507F801206B97D5904
:1005C5007F821206B97D237F841206B97D807F8ED6
:0305D5000206B962
:0C076600C0F9A4B0999282F88090FFBF07
:1003EF00042600000000C182023E0000C180C1054A
:1003FF0008360020406080A0C0E0012301C1070142
:10040F002A0008410A0A0A0A0A0A0A0A012B00C12D
:10041F0004C183C181C1860140000A2C0A0000007B
:0F042F000000000000000122010125000124004F
:10066A0075A01F7580FF853AA02008057580FE8059
:0B067A00037580FF75A01FE4F58022CF
:10043F00853CA0E4F58075A01F7580FF853DA085E4
:10044F002A82F5831201DC90076693F58075A01F51
:10045F00E4F580853CA0AF2A04A807088002C333C7
:10046F00D8FCF58075A01FE4F580052AE52AC39412
:07047F00084003E4F52A2206
:10053D00C2C420B30875240120B32180FB20B2086A
:10054D0075240220B21680FB20B10875240320B15A
:0D055D000B80FB20B00675240430B0FD2299
:10071200E525700EF5240549E549D394034003E429
:03072200F5492274
:10073800E525700DF524752501F522200503120520
:02074800B522D8
:10063000E525B40217E4F524E523700475230122AF
:0D0640000540E540C3940A4003E4F5402264
:1006FE00E525B4020EE523B40109E4F524F525F54C
:04070E0040D20522AE
:10064D00E52424FE600D14600D14600D2403700C60
:0D065D000207120207380206301206FE22C4
:1004CD0075410A75420A75430A75440A75450A75E0
:1004DD00460BE54914601114601514601724037060
:1004ED0019E4F54775480122E4F54775480522756D
:0B04FD0047038003754706E4F5482222
:1003740030000875460B75430B800675460A7543B5
:100384000A300343C2037F81120591EF75F00A849A
:1003940085F048EF75F00A84F5477F83120591EFE5
:1003A40064A56008EF75F00A8485F045EF75F00ADE
:1003B40084F5447F85120591EF75F00A8485F04237
:1003C400EF75F00A84F54130060EC2061205087472
:1003D4002C2540F8A6070540E540C3940A400BE4E9
:0A03E400F540752201F5237525028E
:0103EE0022EC
:10048600E523700B300704C2088006D2088002D22A
:100496000812066A75410BE54075F00A84F542E5D7
:1004A6004075F00A8485F04375440A75450A754619
:1004B6000B742C2540F8E6FF75F00A84F547EF75B6
:0704C600F00A8485F04822D2
:1006E800E52514600A14600A240270090204CD0288
:0606F800037412048622C7
:10000E00438E805389F0758A9A758CA9C28DD28CD5
:05001E00D2A9D2AF22BF
:1006D100759850438E40538EFE53890F758BE0758C
:0706E1008DFEC2ABD28E2298
:0D075900853BA0E4F580853AA07580FF2265
:0F074A001207591206D112000E120508020508F7
:1007250012074A1206E83004FAC20412053D120601
:030735004D80F004
:03000B00020026CA
:10002600C0E0C0F0C083C082C0D075D000C000C0A0
:1000360001C002C003C004C005C006C007E52924EC
:1000460001F529E43528F528E43527F527E4352692
:10005600F5267B007A00794112043FE47B05FAF924
:10006600F8AF29AE28AD27AC26120245AC00AD018B
:10007600AE02AF03E4FBFAF9F8C31202D77002D25C
:1000860004E47B64FAF9F8AF29AE28AD27AC261252
:100096000245AC00AD01AE02AF03E4FBFAF9F8C3CA
:1000A6001202D77006E5237002B207E47BFAFAF96A
:1000B600F8AF29AE28AD27AC26120245AC00AD013B
:1000C600AE02AF03E4FBFAF9F8C31202D77004D20A
:1000D60002D203E47BF47A01F9F8AF29AE28AD2702
:1000E600AC26120245AC00AD01AE02AF03E4FBFA4A
:1000F600F9F8C31202D77002B200E52260030201CA
:10010600C1E54914603C14606214700302019A242C
:100116000360030201C1E47BF47A01F9F8AF29AE6A
:1001260028AD27AC26120245AC00AD01AE02AF03E6
:10013600E4FBFAF9F8C31202D760030201C1D20642
:100146008079E47BC47A09F9F8AF29AE28AD27ACEB
:1001560026120245AC00AD01AE02AF03E4FBFAF98C
:10016600F8C31202D77054D2068050E47B987A3ACC
:10017600F9F8AF29AE28AD27AC26120245AC00AD82
:1001860001AE02AF03E4FBFAF9F8C31202D7702BF3
:10019600D2068027E47B307A75F9F8AF29AE28AD10
:1001A60027AC26120245AC00AD01AE02AF03E4FB5C
:1001B600FAF9F8C31202D77002D206D007D006D0D9
:1001C60005D004D003D002D001D000D0D0D082D048
:0601D60083D0F0D0E032FE
:03002300020003D5
:03000300C299326D
:1002F400020725E493A3F8E493A34003F68001F2F4
:1003040008DFF48029E493A3F85407240CC8C3330A
:10031400C4540F4420C8834004F456800146F6DFD9
:10032400E4800B01020408102040809003EFE47E77
:10033400019360BCA3FF543F30E509541FFEE493CE
:10034400A360010ECF54C025E060A840B8E493A395
:10035400FAE493A3F8E493A3C8C582C8CAC583CAC0
:10036400F0A3C8C582C8CAC583CADFE9DEE780BE78
:01043E0000BD
:1001DC00BB010CE58229F582E5833AF583E02250D8
:1001EC0006E92582F8E622BBFE06E92582F8E22222
:0D01FC00E58229F582E5833AF583E493223C
:1002090075F008758200EF2FFFEE33FECD33CDCCAC
:1002190033CCC58233C5829BED9AEC99E58298402F
:100229000CF582EE9BFEED9AFDEC99FC0FD5F0D60C
:10023900E4CEFBE4CDFAE4CCF9A88222B800C1B936
:100249000059BA002DEC8BF084CFCECDFCE5F0CB74
:10025900F97818EF2FFFEE33FEED33FDEC33FCEBAD
:1002690033FB10D703994004EB99FB0FD8E5E4F968
:10027900FA227818EF2FFFEE33FEED33FDEC33FC55
:10028900C933C910D7059BE99A4007EC9BFCE99A49
:10029900F90FD8E0E4C9FAE4CCFB2275F010EF2F8E
:1002A900FFEE33FEED33FDCC33CCC833C810D7078E
:1002B9009BEC9AE899400AED9BFDEC9AFCE899F8C9
:0E02C9000FD5F0DAE4CDFBE4CCFAE4C8F9225C
:1002D700EB9FF5F0EA9E42F0E99D42F0E89C45F07D
:0102E70022F4
:00000001FF
